{
  "_format": "hh-sol-artifact-1",
  "contractName": "Upload",
  "sourceName": "contracts/Upload.sol",
  "abi": [
    {
      "inputs": [
        {
          "internalType": "address",
          "name": "_user",
          "type": "address"
        },
        {
          "internalType": "string",
          "name": "url",
          "type": "string"
        },
        {
          "internalType": "string",
          "name": "fileName",
          "type": "string"
        }
      ],
      "name": "add",
      "outputs": [],
      "stateMutability": "nonpayable",
      "type": "function"
    },
    {
      "inputs": [
        {
          "internalType": "address",
          "name": "user",
          "type": "address"
        }
      ],
      "name": "allow",
      "outputs": [],
      "stateMutability": "nonpayable",
      "type": "function"
    },
    {
      "inputs": [
        {
          "internalType": "address",
          "name": "user",
          "type": "address"
        }
      ],
      "name": "disallow",
      "outputs": [],
      "stateMutability": "nonpayable",
      "type": "function"
    },
    {
      "inputs": [
        {
          "internalType": "address",
          "name": "_user",
          "type": "address"
        }
      ],
      "name": "display",
      "outputs": [
        {
          "components": [
            {
              "internalType": "string",
              "name": "url",
              "type": "string"
            },
            {
              "internalType": "string",
              "name": "fileName",
              "type": "string"
            }
          ],
          "internalType": "struct Upload.File[]",
          "name": "",
          "type": "tuple[]"
        }
      ],
      "stateMutability": "view",
      "type": "function"
    },
    {
      "inputs": [],
      "name": "shareAccess",
      "outputs": [
        {
          "components": [
            {
              "internalType": "address",
              "name": "user",
              "type": "address"
            },
            {
              "internalType": "bool",
              "name": "access",
              "type": "bool"
            }
          ],
          "internalType": "struct Upload.Access[]",
          "name": "",
          "type": "tuple[]"
        }
      ],
      "stateMutability": "view",
      "type": "function"
    }
  ],
  "bytecode": "0x608060405234801561001057600080fd5b506114dd806100206000396000f3fe608060405234801561001057600080fd5b50600436106100575760003560e01c806346bc7fd91461005c578063a9ed9cb814610078578063bc8bef8114610094578063eb39113f146100b2578063ff9913e8146100e2575b600080fd5b61007660048036038101906100719190610d8a565b6100fe565b005b610092600480360381019061008d9190610e15565b6101ad565b005b61009c6103c9565b6040516100a99190610f4a565b60405180910390f35b6100cc60048036038101906100c79190610e15565b6104d2565b6040516100d991906110f1565b60405180910390f35b6100fc60048036038101906100f79190610e15565b610792565b005b6000808473ffffffffffffffffffffffffffffffffffffffff1673ffffffffffffffffffffffffffffffffffffffff1681526020019081526020016000206040518060400160405280848152602001838152509080600181540180825580915050600190039060005260206000209060020201600090919091909150600082015181600001908161018f9190611329565b5060208201518160010190816101a59190611329565b505050505050565b6000600160003373ffffffffffffffffffffffffffffffffffffffff1673ffffffffffffffffffffffffffffffffffffffff16815260200190815260200160002060008373ffffffffffffffffffffffffffffffffffffffff1673ffffffffffffffffffffffffffffffffffffffff16815260200190815260200160002060006101000a81548160ff02191690831515021790555060005b600260003373ffffffffffffffffffffffffffffffffffffffff1673ffffffffffffffffffffffffffffffffffffffff168152602001908152602001600020805490508110156103c5578173ffffffffffffffffffffffffffffffffffffffff16600260003373ffffffffffffffffffffffffffffffffffffffff1673ffffffffffffffffffffffffffffffffffffffff16815260200190815260200160002082815481106102f7576102f66113fb565b5b9060005260206000200160000160009054906101000a900473ffffffffffffffffffffffffffffffffffffffff1673ffffffffffffffffffffffffffffffffffffffff16036103b8576000600260003373ffffffffffffffffffffffffffffffffffffffff1673ffffffffffffffffffffffffffffffffffffffff1681526020019081526020016000208281548110610393576103926113fb565b5b9060005260206000200160000160146101000a81548160ff0219169083151502179055505b8080600101915050610245565b5050565b6060600260003373ffffffffffffffffffffffffffffffffffffffff1673ffffffffffffffffffffffffffffffffffffffff168152602001908152602001600020805480602002602001604051908101604052809291908181526020016000905b828210156104c9578382906000526020600020016040518060400160405290816000820160009054906101000a900473ffffffffffffffffffffffffffffffffffffffff1673ffffffffffffffffffffffffffffffffffffffff1673ffffffffffffffffffffffffffffffffffffffff1681526020016000820160149054906101000a900460ff1615151515815250508152602001906001019061042a565b50505050905090565b60603373ffffffffffffffffffffffffffffffffffffffff168273ffffffffffffffffffffffffffffffffffffffff1614806105945750600160008373ffffffffffffffffffffffffffffffffffffffff1673ffffffffffffffffffffffffffffffffffffffff16815260200190815260200160002060003373ffffffffffffffffffffffffffffffffffffffff1673ffffffffffffffffffffffffffffffffffffffff16815260200190815260200160002060009054906101000a900460ff165b6105d3576040517f08c379a00000000000000000000000000000000000000000000000000000000081526004016105ca90611487565b60405180910390fd5b6000808373ffffffffffffffffffffffffffffffffffffffff1673ffffffffffffffffffffffffffffffffffffffff168152602001908152602001600020805480602002602001604051908101604052809291908181526020016000905b82821015610787578382906000526020600020906002020160405180604001604052908160008201805461066490611142565b80601f016020809104026020016040519081016040528092919081815260200182805461069090611142565b80156106dd5780601f106106b2576101008083540402835291602001916106dd565b820191906000526020600020905b8154815290600101906020018083116106c057829003601f168201915b505050505081526020016001820180546106f690611142565b80601f016020809104026020016040519081016040528092919081815260200182805461072290611142565b801561076f5780601f106107445761010080835404028352916020019161076f565b820191906000526020600020905b81548152906001019060200180831161075257829003601f168201915b50505050508152505081526020019060010190610631565b505050509050919050565b60018060003373ffffffffffffffffffffffffffffffffffffffff1673ffffffffffffffffffffffffffffffffffffffff16815260200190815260200160002060008373ffffffffffffffffffffffffffffffffffffffff1673ffffffffffffffffffffffffffffffffffffffff16815260200190815260200160002060006101000a81548160ff021916908315150217905550600360003373ffffffffffffffffffffffffffffffffffffffff1673ffffffffffffffffffffffffffffffffffffffff16815260200190815260200160002060008273ffffffffffffffffffffffffffffffffffffffff1673ffffffffffffffffffffffffffffffffffffffff16815260200190815260200160002060009054906101000a900460ff1615610a3e5760005b600260003373ffffffffffffffffffffffffffffffffffffffff1673ffffffffffffffffffffffffffffffffffffffff16815260200190815260200160002080549050811015610a38578173ffffffffffffffffffffffffffffffffffffffff16600260003373ffffffffffffffffffffffffffffffffffffffff1673ffffffffffffffffffffffffffffffffffffffff168152602001908152602001600020828154811061096a576109696113fb565b5b9060005260206000200160000160009054906101000a900473ffffffffffffffffffffffffffffffffffffffff1673ffffffffffffffffffffffffffffffffffffffff1603610a2b576001600260003373ffffffffffffffffffffffffffffffffffffffff1673ffffffffffffffffffffffffffffffffffffffff1681526020019081526020016000208281548110610a0657610a056113fb565b5b9060005260206000200160000160146101000a81548160ff0219169083151502179055505b80806001019150506108b8565b50610bcf565b600260003373ffffffffffffffffffffffffffffffffffffffff1673ffffffffffffffffffffffffffffffffffffffff16815260200190815260200160002060405180604001604052808373ffffffffffffffffffffffffffffffffffffffff168152602001600115158152509080600181540180825580915050600190039060005260206000200160009091909190915060008201518160000160006101000a81548173ffffffffffffffffffffffffffffffffffffffff021916908373ffffffffffffffffffffffffffffffffffffffff16021790555060208201518160000160146101000a81548160ff02191690831515021790555050506001600360003373ffffffffffffffffffffffffffffffffffffffff1673ffffffffffffffffffffffffffffffffffffffff16815260200190815260200160002060008373ffffffffffffffffffffffffffffffffffffffff1673ffffffffffffffffffffffffffffffffffffffff16815260200190815260200160002060006101000a81548160ff0219169083151502179055505b50565b6000604051905090565b600080fd5b600080fd5b600073ffffffffffffffffffffffffffffffffffffffff82169050919050565b6000610c1182610be6565b9050919050565b610c2181610c06565b8114610c2c57600080fd5b50565b600081359050610c3e81610c18565b92915050565b600080fd5b600080fd5b6000601f19601f8301169050919050565b7f4e487b7100000000000000000000000000000000000000000000000000000000600052604160045260246000fd5b610c9782610c4e565b810181811067ffffffffffffffff82111715610cb657610cb5610c5f565b5b80604052505050565b6000610cc9610bd2565b9050610cd58282610c8e565b919050565b600067ffffffffffffffff821115610cf557610cf4610c5f565b5b610cfe82610c4e565b9050602081019050919050565b82818337600083830152505050565b6000610d2d610d2884610cda565b610cbf565b905082815260208101848484011115610d4957610d48610c49565b5b610d54848285610d0b565b509392505050565b600082601f830112610d7157610d70610c44565b5b8135610d81848260208601610d1a565b91505092915050565b600080600060608486031215610da357610da2610bdc565b5b6000610db186828701610c2f565b935050602084013567ffffffffffffffff811115610dd257610dd1610be1565b5b610dde86828701610d5c565b925050604084013567ffffffffffffffff811115610dff57610dfe610be1565b5b610e0b86828701610d5c565b9150509250925092565b600060208284031215610e2b57610e2a610bdc565b5b6000610e3984828501610c2f565b91505092915050565b600081519050919050565b600082825260208201905092915050565b6000819050602082019050919050565b610e7781610c06565b82525050565b60008115159050919050565b610e9281610e7d565b82525050565b604082016000820151610eae6000850182610e6e565b506020820151610ec16020850182610e89565b50505050565b6000610ed38383610e98565b60408301905092915050565b6000602082019050919050565b6000610ef782610e42565b610f018185610e4d565b9350610f0c83610e5e565b8060005b83811015610f3d578151610f248882610ec7565b9750610f2f83610edf565b925050600181019050610f10565b5085935050505092915050565b60006020820190508181036000830152610f648184610eec565b905092915050565b600081519050919050565b600082825260208201905092915050565b6000819050602082019050919050565b600081519050919050565b600082825260208201905092915050565b60005b83811015610fd2578082015181840152602081019050610fb7565b60008484015250505050565b6000610fe982610f98565b610ff38185610fa3565b9350611003818560208601610fb4565b61100c81610c4e565b840191505092915050565b600060408301600083015184820360008601526110348282610fde565b9150506020830151848203602086015261104e8282610fde565b9150508091505092915050565b60006110678383611017565b905092915050565b6000602082019050919050565b600061108782610f6c565b6110918185610f77565b9350836020820285016110a385610f88565b8060005b858110156110df57848403895281516110c0858261105b565b94506110cb8361106f565b925060208a019950506001810190506110a7565b50829750879550505050505092915050565b6000602082019050818103600083015261110b818461107c565b905092915050565b7f4e487b7100000000000000000000000000000000000000000000000000000000600052602260045260246000fd5b6000600282049050600182168061115a57607f821691505b60208210810361116d5761116c611113565b5b50919050565b60008190508160005260206000209050919050565b60006020601f8301049050919050565b600082821b905092915050565b6000600883026111d57fffffffffffffffffffffffffffffffffffffffffffffffffffffffffffffffff82611198565b6111df8683611198565b95508019841693508086168417925050509392505050565b6000819050919050565b6000819050919050565b600061122661122161121c846111f7565b611201565b6111f7565b9050919050565b6000819050919050565b6112408361120b565b61125461124c8261122d565b8484546111a5565b825550505050565b600090565b61126961125c565b611274818484611237565b505050565b5b818110156112985761128d600082611261565b60018101905061127a565b5050565b601f8211156112dd576112ae81611173565b6112b784611188565b810160208510156112c6578190505b6112da6112d285611188565b830182611279565b50505b505050565b600082821c905092915050565b6000611300600019846008026112e2565b1980831691505092915050565b600061131983836112ef565b9150826002028217905092915050565b61133282610f98565b67ffffffffffffffff81111561134b5761134a610c5f565b5b6113558254611142565b61136082828561129c565b600060209050601f8311600181146113935760008415611381578287015190505b61138b858261130d565b8655506113f3565b601f1984166113a186611173565b60005b828110156113c9578489015182556001820191506020850194506020810190506113a4565b868310156113e657848901516113e2601f8916826112ef565b8355505b6001600288020188555050505b505050505050565b7f4e487b7100000000000000000000000000000000000000000000000000000000600052603260045260246000fd5b600082825260208201905092915050565b7f596f7520646f6e27742068617665206163636573730000000000000000000000600082015250565b600061147160158361142a565b915061147c8261143b565b602082019050919050565b600060208201905081810360008301526114a081611464565b905091905056fea2646970667358221220ecafc0621ad01f6e7235a0c5943dfc29be98b762f201fe5266141eee8e1f7ad764736f6c63430008180033",
  "linkReferences": {},
  "deployedLinkReferences": {}
}